{
  "address": "0xFC0829E792b0D10DF95B895d56FaD4712DA30B25",
  "abi": [
    {
      "inputs": [
        {
          "internalType": "bytes",
          "name": "proof",
          "type": "bytes"
        },
        {
          "internalType": "uint256[6]",
          "name": "input",
          "type": "uint256[6]"
        }
      ],
      "name": "verifyProof",
      "outputs": [
        {
          "internalType": "bool",
          "name": "",
          "type": "bool"
        }
      ],
      "stateMutability": "view",
      "type": "function"
    }
  ],
  "transactionHash": "0x088991c62269482547430017ebc2f64cad9bf3606717651a3c37ea3fc1e38897",
  "args": [],
  "solcInputHash": "14a9d98c66998f4fd079c7511c98ac02",
  "bytecode": "0x608060405234801561001057600080fd5b50610f67806100206000396000f3fe608060405234801561001057600080fd5b506004361061002b5760003560e01c8063695ef6f914610030575b600080fd5b610102600480360360e081101561004657600080fd5b81019060208101813564010000000081111561006157600080fd5b82018360208201111561007357600080fd5b8035906020019184600183028401116401000000008311171561009557600080fd5b91908080601f016020809104026020016040519081016040528093929190818152602001838380828437600092019190915250506040805160c081810190925293969594818101949350915060069083908390808284376000920191909152509194506101169350505050565b604080519115158252519081900360200190f35b6000610120610d3e565b8380602001905161010081101561013657600080fd5b50905060005b60088160ff1610156101db577f30644e72e131a029b85045b68181585d97816a916871ca8d3c208c16d87cfd47828260ff166008811061017857fe5b6020020151106101d3576040517f08c379a0000000000000000000000000000000000000000000000000000000008152600401808060200182810382526022815260200180610f106022913960400191505060405180910390fd5b60010161013c565b506101e4610d5d565b6040805180820182528351815260208085015181830152908352815160808082018452858401518285019081526060808801519084015282528351808501855290860151815260a08601518184015281830152838201528151808301835260c0850151815260e08501519181019190915290820152610261610d8f565b6102696103db565b9050610273610dd6565b604051806040016040528060008152602001600081525090506102ab8183608001516000600781106102a157fe5b60200201516108a7565b905060005b600681101561039b577f30644e72e131a029b85045b68181585d2833e84879b9709143e1f593f00000018782600681106102e657fe5b60200201511061035757604080517f08c379a000000000000000000000000000000000000000000000000000000000815260206004820152601f60248201527f76657269666965722d6774652d736e61726b2d7363616c61722d6669656c6400604482015290519081900360640190fd5b6103918261038c8560800151846001016007811061037157fe5b60200201518a856006811061038257fe5b602002015161096c565b6108a7565b91506001016102b0565b506103d06103ac8460000151610a17565b84602001518460000151856020015185876040015189604001518960600151610abe565b979650505050505050565b6103e3610d8f565b6040805180820182527f2bbc2aee1776a9b64687b8f4eeb2a5238ee3763db5b99dbf8e6571507d1edc8d81527f1524b369d37ba1286a8d05ecbf0c8454030c7b7ac15af5e917065b5b5e7df1926020808301919091529083528151608080820184527f068afe432c6542e0458ec3b5d3863b35461374803dbaa94b73ab48d8103c8dd78285019081527f0622647ca2834adfdc935e3fabc30a19fd276d2b45a26e4614d3e3762a38d73d606080850191909152908352845180860186527f0aa6ffc81080ad995a6d02a20673c488667b762787d23327c5cd344aa99e323181527f229e8e3d4ec3adb0bbd3413c56ead8134a45e7e11c5ffa11b60cbf9fdd775285818601528385015285840192909252835180820185527f198e9393920d483a7260bfb731fb5d25f1aa493335a9e71297e485b7aef312c28186019081527f1800deef121f1e76426a00665e5c4479674322d4f75edadd46debd5cd992f6ed828501528152845180860186527f090689d0585ff075ec9e99ad690c3395bc4b313370b38ef355acdadcd122975b81527f12c85ea5db8c6deb4aab71808dcb408fe3d1e7690c43d37b4ce6cc0166fa7daa818601528185015285850152835180820185527f210ef68bfd60ec5d70b2069292c55bf16105fc3086cec9b4ec14200a44dba3f18186019081527f228d7e877fb911164dc53803df02c44a3576849dbb1236887a8a0704cf824488828501528152845180860186527f1135f10a027e2852b6b4c8ecd964c293c777082f03082e305e97b638e3023d7381527f13772b927d6ac69d87d38cd983ace01bad957ec410ee1cd6cbd6f19957dbe0f0818601528185015282860152835180850185527f24749a668c901ecc64c2dc550de182ab8f48181ac0235f5d625d87ea9c11e0f381527f236819e4306cc834151499e9e12b79bfcbf03dd351abd9e061ecba6c2bee83e381850152818601805191909152845180860186527f2c79012d84539da5d2ff48f79dd6f3d18a643679207fac579ee745bbd974ab2881527f230b3bfde439187015eb036176c806d3bd9fc006ce42c438be18fb0f9dd395b7818601528151850152845180860186527f279f300fa13c4b1fc2f5f9b56d48c50e4017289822fb53303383835a6e3546f181527f258572bec799949367b3b9cfeaf9fca8372a052406f36688cf8cb55f492e251c818601528151860152845180860186527f2104f8701a0a21b46fb8e868f7072b0d5f7b8a387f9042428ed883bae1aa145381527f06e32ed669efde6610e82126fdea84e48904fd96b91cdbdc991bf2dd922799ca81860152815190930192909252835180850185527f2be81e4048520a6dfbdee91a343a0dca40555bee22baf107449fc440a996ec7781527f0616677c9c71ce9e05f3a99ff9254b0c4cb3a36a6142d4dfabfd250d05cacabf81850152825190910152825180840184527f14d102a2624be2f68cac065bf60528603bfe25d63ce2126c05afcf9bb7d1c7da81527ec4b5c6d2459c25b96d9f305c3ab8a7cd834a7bb2ea3250f9e7da47f5c454be81840152815160a0015282518084019093527f1afdf6a86a81cf66b849adaa410f8efc3fb58c424cf5c734d35ebc6eeaf4a57983527f019ee9bb5fcfc23d4e5437c94d2e51cdb3ded852fb2713bcf43066dcc3951b7d918301919091525160c0015290565b6108af610dd6565b6108b7610df0565b8351815260208085015181830152835160408301528301516060808301919091526000908360c08460066107d05a03fa90508080156108f5576108f7565bfe5b508061096457604080517f08c379a000000000000000000000000000000000000000000000000000000000815260206004820152601260248201527f70616972696e672d6164642d6661696c65640000000000000000000000000000604482015290519081900360640190fd5b505092915050565b610974610dd6565b61097c610e0e565b835181526020808501519082015260408101839052600060608360808460076107d05a03fa90508080156108f557508061096457604080517f08c379a000000000000000000000000000000000000000000000000000000000815260206004820152601260248201527f70616972696e672d6d756c2d6661696c65640000000000000000000000000000604482015290519081900360640190fd5b610a1f610dd6565b8151158015610a3057506020820151155b15610a4f57506040805180820190915260008082526020820152610ab9565b6040518060400160405280836000015181526020017f30644e72e131a029b85045b68181585d97816a916871ca8d3c208c16d87cfd47846020015181610a9157fe5b067f30644e72e131a029b85045b68181585d97816a916871ca8d3c208c16d87cfd4703905290505b919050565b6000610ac8610e2c565b60405180608001604052808b8152602001898152602001878152602001858152509050610af3610e59565b50604080516080810182528a81526020810189905280820187905260608082018690528251601880825261032082019094529192918281602001602082028036833701905050905060005b6004811015610c955760068102858260048110610b5757fe5b6020020151518351849083908110610b6b57fe5b602002602001018181525050858260048110610b8357fe5b602002015160200151838260010181518110610b9b57fe5b602002602001018181525050848260048110610bb357fe5b602002015151518351849060028401908110610bcb57fe5b602002602001018181525050848260048110610be357fe5b60200201515160016020020151838260030181518110610bff57fe5b602002602001018181525050848260048110610c1757fe5b602002015160200151600060028110610c2c57fe5b6020020151838260040181518110610c4057fe5b602002602001018181525050848260048110610c5857fe5b602002015160200151600160028110610c6d57fe5b6020020151838260050181518110610c8157fe5b602090810291909101015250600101610b3e565b50610c9e610e86565b6000602082602086026020860160086107d05a03fa90508080156108f5575080610d2957604080517f08c379a000000000000000000000000000000000000000000000000000000000815260206004820152601560248201527f70616972696e672d6f70636f64652d6661696c65640000000000000000000000604482015290519081900360640190fd5b505115159d9c50505050505050505050505050565b6040518061010001604052806008906020820280368337509192915050565b6040518060600160405280610d70610dd6565b8152602001610d7d610ea4565b8152602001610d8a610dd6565b905290565b6040518060a00160405280610da2610dd6565b8152602001610daf610ea4565b8152602001610dbc610ea4565b8152602001610dc9610ea4565b8152602001610d8a610ec4565b604051806040016040528060008152602001600081525090565b60405180608001604052806004906020820280368337509192915050565b60405180606001604052806003906020820280368337509192915050565b60405180608001604052806004905b610e43610dd6565b815260200190600190039081610e3b5790505090565b60405180608001604052806004905b610e70610ea4565b815260200190600190039081610e685790505090565b60405180602001604052806001906020820280368337509192915050565b6040518060400160405280610eb7610ef1565b8152602001610d8a610ef1565b6040518060e001604052806007905b610edb610dd6565b815260200190600190039081610ed35790505090565b6040518060400160405280600290602082028036833750919291505056fe76657269666965722d70726f6f662d656c656d656e742d6774652d7072696d652d71a264697066735822122078a9d93eb33f45c085dd87b34fb95f2f2b2f6b782123dacce4b1825011b8eabf64736f6c63430006060033",
  "devdoc": {
    "methods": {}
  },
  "userdoc": {
    "methods": {}
  },
  "storageLayout": {
    "storage": [],
    "types": null
  }
}