{
  "address": "0x7CE57f6a5a135eb1a8e9640Af1eff9665ade00D9",
  "abi": [
    {
      "inputs": [
        {
          "internalType": "contract IVerifier",
          "name": "_verifier",
          "type": "address"
        },
        {
          "internalType": "uint256",
          "name": "_denomination",
          "type": "uint256"
        },
        {
          "internalType": "uint32",
          "name": "_merkleTreeHeight",
          "type": "uint32"
        }
      ],
      "payable": false,
      "stateMutability": "nonpayable",
      "type": "constructor"
    },
    {
      "anonymous": false,
      "inputs": [
        {
          "indexed": true,
          "internalType": "bytes32",
          "name": "commitment",
          "type": "bytes32"
        },
        {
          "indexed": false,
          "internalType": "uint32",
          "name": "leafIndex",
          "type": "uint32"
        },
        {
          "indexed": false,
          "internalType": "uint256",
          "name": "timestamp",
          "type": "uint256"
        }
      ],
      "name": "Deposit",
      "type": "event"
    },
    {
      "anonymous": false,
      "inputs": [
        {
          "indexed": false,
          "internalType": "address",
          "name": "to",
          "type": "address"
        },
        {
          "indexed": false,
          "internalType": "bytes32",
          "name": "nullifierHash",
          "type": "bytes32"
        },
        {
          "indexed": true,
          "internalType": "address",
          "name": "relayer",
          "type": "address"
        },
        {
          "indexed": false,
          "internalType": "uint256",
          "name": "fee",
          "type": "uint256"
        }
      ],
      "name": "Withdrawal",
      "type": "event"
    },
    {
      "constant": true,
      "inputs": [],
      "name": "FIELD_SIZE",
      "outputs": [
        {
          "internalType": "uint256",
          "name": "",
          "type": "uint256"
        }
      ],
      "payable": false,
      "stateMutability": "view",
      "type": "function"
    },
    {
      "constant": true,
      "inputs": [],
      "name": "ROOT_HISTORY_SIZE",
      "outputs": [
        {
          "internalType": "uint32",
          "name": "",
          "type": "uint32"
        }
      ],
      "payable": false,
      "stateMutability": "view",
      "type": "function"
    },
    {
      "constant": true,
      "inputs": [],
      "name": "ZERO_VALUE",
      "outputs": [
        {
          "internalType": "uint256",
          "name": "",
          "type": "uint256"
        }
      ],
      "payable": false,
      "stateMutability": "view",
      "type": "function"
    },
    {
      "constant": true,
      "inputs": [
        {
          "internalType": "bytes32",
          "name": "",
          "type": "bytes32"
        }
      ],
      "name": "commitments",
      "outputs": [
        {
          "internalType": "bool",
          "name": "",
          "type": "bool"
        }
      ],
      "payable": false,
      "stateMutability": "view",
      "type": "function"
    },
    {
      "constant": true,
      "inputs": [],
      "name": "currentRootIndex",
      "outputs": [
        {
          "internalType": "uint32",
          "name": "",
          "type": "uint32"
        }
      ],
      "payable": false,
      "stateMutability": "view",
      "type": "function"
    },
    {
      "constant": true,
      "inputs": [],
      "name": "denomination",
      "outputs": [
        {
          "internalType": "uint256",
          "name": "",
          "type": "uint256"
        }
      ],
      "payable": false,
      "stateMutability": "view",
      "type": "function"
    },
    {
      "constant": false,
      "inputs": [
        {
          "internalType": "bytes32",
          "name": "_commitment",
          "type": "bytes32"
        }
      ],
      "name": "deposit",
      "outputs": [],
      "payable": true,
      "stateMutability": "payable",
      "type": "function"
    },
    {
      "constant": true,
      "inputs": [
        {
          "internalType": "uint256",
          "name": "",
          "type": "uint256"
        }
      ],
      "name": "filledSubtrees",
      "outputs": [
        {
          "internalType": "bytes32",
          "name": "",
          "type": "bytes32"
        }
      ],
      "payable": false,
      "stateMutability": "view",
      "type": "function"
    },
    {
      "constant": true,
      "inputs": [],
      "name": "getLastRoot",
      "outputs": [
        {
          "internalType": "bytes32",
          "name": "",
          "type": "bytes32"
        }
      ],
      "payable": false,
      "stateMutability": "view",
      "type": "function"
    },
    {
      "constant": true,
      "inputs": [
        {
          "internalType": "bytes32",
          "name": "_left",
          "type": "bytes32"
        },
        {
          "internalType": "bytes32",
          "name": "_right",
          "type": "bytes32"
        }
      ],
      "name": "hashLeftRight",
      "outputs": [
        {
          "internalType": "bytes32",
          "name": "",
          "type": "bytes32"
        }
      ],
      "payable": false,
      "stateMutability": "pure",
      "type": "function"
    },
    {
      "constant": true,
      "inputs": [
        {
          "internalType": "bytes32",
          "name": "_root",
          "type": "bytes32"
        }
      ],
      "name": "isKnownRoot",
      "outputs": [
        {
          "internalType": "bool",
          "name": "",
          "type": "bool"
        }
      ],
      "payable": false,
      "stateMutability": "view",
      "type": "function"
    },
    {
      "constant": true,
      "inputs": [
        {
          "internalType": "bytes32",
          "name": "_nullifierHash",
          "type": "bytes32"
        }
      ],
      "name": "isSpent",
      "outputs": [
        {
          "internalType": "bool",
          "name": "",
          "type": "bool"
        }
      ],
      "payable": false,
      "stateMutability": "view",
      "type": "function"
    },
    {
      "constant": true,
      "inputs": [
        {
          "internalType": "bytes32[]",
          "name": "_nullifierHashes",
          "type": "bytes32[]"
        }
      ],
      "name": "isSpentArray",
      "outputs": [
        {
          "internalType": "bool[]",
          "name": "spent",
          "type": "bool[]"
        }
      ],
      "payable": false,
      "stateMutability": "view",
      "type": "function"
    },
    {
      "constant": true,
      "inputs": [],
      "name": "levels",
      "outputs": [
        {
          "internalType": "uint32",
          "name": "",
          "type": "uint32"
        }
      ],
      "payable": false,
      "stateMutability": "view",
      "type": "function"
    },
    {
      "constant": true,
      "inputs": [],
      "name": "nextIndex",
      "outputs": [
        {
          "internalType": "uint32",
          "name": "",
          "type": "uint32"
        }
      ],
      "payable": false,
      "stateMutability": "view",
      "type": "function"
    },
    {
      "constant": true,
      "inputs": [
        {
          "internalType": "bytes32",
          "name": "",
          "type": "bytes32"
        }
      ],
      "name": "nullifierHashes",
      "outputs": [
        {
          "internalType": "bool",
          "name": "",
          "type": "bool"
        }
      ],
      "payable": false,
      "stateMutability": "view",
      "type": "function"
    },
    {
      "constant": true,
      "inputs": [
        {
          "internalType": "uint256",
          "name": "",
          "type": "uint256"
        }
      ],
      "name": "roots",
      "outputs": [
        {
          "internalType": "bytes32",
          "name": "",
          "type": "bytes32"
        }
      ],
      "payable": false,
      "stateMutability": "view",
      "type": "function"
    },
    {
      "constant": true,
      "inputs": [],
      "name": "verifier",
      "outputs": [
        {
          "internalType": "contract IVerifier",
          "name": "",
          "type": "address"
        }
      ],
      "payable": false,
      "stateMutability": "view",
      "type": "function"
    },
    {
      "constant": false,
      "inputs": [
        {
          "internalType": "bytes",
          "name": "_proof",
          "type": "bytes"
        },
        {
          "internalType": "bytes32",
          "name": "_root",
          "type": "bytes32"
        },
        {
          "internalType": "bytes32",
          "name": "_nullifierHash",
          "type": "bytes32"
        },
        {
          "internalType": "address payable",
          "name": "_recipient",
          "type": "address"
        },
        {
          "internalType": "address payable",
          "name": "_relayer",
          "type": "address"
        },
        {
          "internalType": "uint256",
          "name": "_fee",
          "type": "uint256"
        },
        {
          "internalType": "uint256",
          "name": "_refund",
          "type": "uint256"
        }
      ],
      "name": "withdraw",
      "outputs": [],
      "payable": true,
      "stateMutability": "payable",
      "type": "function"
    },
    {
      "constant": true,
      "inputs": [
        {
          "internalType": "uint256",
          "name": "",
          "type": "uint256"
        }
      ],
      "name": "zeros",
      "outputs": [
        {
          "internalType": "bytes32",
          "name": "",
          "type": "bytes32"
        }
      ],
      "payable": false,
      "stateMutability": "view",
      "type": "function"
    }
  ],
  "transactionHash": "0x51e6a6acc050ef0946322e9dce7882e1ee51ca5b40bd772f50a283d5f109caf6",
  "args": [
    "0xFC0829E792b0D10DF95B895d56FaD4712DA30B25",
    "100000000000000000000",
    "20"
  ],
  "solcInputHash": "8ba53f8bfe13aaa9c5ca0d3469daffe7",
  "bytecode": "0x6080604052600380546001600160401b03191690553480156200002157600080fd5b5060405162001bbe38038062001bbe833981810160405260608110156200004757600080fd5b50805160208201516040909201519091908282828063ffffffff8116620000a05760405162461bcd60e51b815260040180806020018281038252602781526020018062001b356027913960400191505060405180910390fd5b60208163ffffffff1610620000e75760405162461bcd60e51b815260040180806020018281038252602281526020018062001b7c6022913960400191505060405180910390fd5b6000805463ffffffff191663ffffffff83161781556002805460018181019092557f2fe54c60d3acabf3343a35b6eba15db4821b340f76e741e2249685ed4899af6c60008051602062001af4833981519152909101819055815480830183559282905260008051602062001b9e8339815191529092018290555b60005463ffffffff9081169082161015620001d5576200018b82806001600160e01b036200026d16565b60028054600181810190925560008051602062001af48339815191520182905580548082018255600082905260008051602062001b9e833981519152018290559092500162000161565b50620001eb81806001600160e01b036200026d16565b60046000015550506068805460ff19166001179055816200023e5760405162461bcd60e51b815260040180806020018281038252602581526020018062001acf6025913960400191505060405180910390fd5b50606c80546001600160a01b0319166001600160a01b039390931692909217909155606955506200045a915050565b600060008051602062001b5c8339815191528310620002d3576040805162461bcd60e51b815260206004820181905260248201527f5f6c6566742073686f756c6420626520696e7369646520746865206669656c64604482015290519081900360640190fd5b60008051602062001b5c8339815191528210620003225760405162461bcd60e51b815260040180806020018281038252602181526020018062001b146021913960400191505060405180910390fd5b6040805163f47d33b560e01b8152600481018590526000602482018190528251869391927311735d37F9f4833d6fC6C81634e24D5CE25AfE1D9263f47d33b592604480840193829003018186803b1580156200037d57600080fd5b505af415801562000392573d6000803e3d6000fd5b505050506040513d6040811015620003a957600080fd5b508051602090910151909250905060008051602062001b5c83398151915284830891507311735d37F9f4833d6fC6C81634e24D5CE25AfE1D63f47d33b583836040518363ffffffff1660e01b81526004018083815260200182815260200192505050604080518083038186803b1580156200042357600080fd5b505af415801562000438573d6000803e3d6000fd5b505050506040513d60408110156200044f57600080fd5b505195945050505050565b611665806200046a6000396000f3fe60806040526004361061015f5760003560e01c80639fa12d0b116100c0578063e5285dcc11610074578063ec73295911610059578063ec7329591461051f578063f178e47c14610534578063fc7e9c6f1461055e5761015f565b8063e5285dcc146104cb578063e8295588146104f55761015f565b8063ba70f757116100a5578063ba70f75714610477578063c2b40ae41461048c578063cd87a3b4146104b65761015f565b80639fa12d0b1461038d578063b214faa51461045a5761015f565b80634ecf518b11610117578063839df945116100fc578063839df945146103395780638bca6d161461036357806390eeb02b146103785761015f565b80634ecf518b146102e15780636d9833e31461030f5761015f565b80632b7ac3f3116101485780632b7ac3f31461024c57806338bf282e1461028a578063414a37ba146102cc5761015f565b806317cc915c1461016457806321a0adb6146101a2575b600080fd5b34801561017057600080fd5b5061018e6004803603602081101561018757600080fd5b5035610573565b604080519115158252519081900360200190f35b61024a600480360360e08110156101b857600080fd5b8101906020810181356401000000008111156101d357600080fd5b8201836020820111156101e557600080fd5b8035906020019184600183028401116401000000008311171561020757600080fd5b919350915080359060208101359073ffffffffffffffffffffffffffffffffffffffff604082013581169160608101359091169060808101359060a00135610588565b005b34801561025857600080fd5b506102616109eb565b6040805173ffffffffffffffffffffffffffffffffffffffff9092168252519081900360200190f35b34801561029657600080fd5b506102ba600480360360408110156102ad57600080fd5b5080359060200135610a07565b60408051918252519081900360200190f35b3480156102d857600080fd5b506102ba610c6b565b3480156102ed57600080fd5b506102f6610c8f565b6040805163ffffffff9092168252519081900360200190f35b34801561031b57600080fd5b5061018e6004803603602081101561033257600080fd5b5035610c9b565b34801561034557600080fd5b5061018e6004803603602081101561035c57600080fd5b5035610d2c565b34801561036f57600080fd5b506102ba610d41565b34801561038457600080fd5b506102f6610d47565b34801561039957600080fd5b5061040a600480360360208110156103b057600080fd5b8101906020810181356401000000008111156103cb57600080fd5b8201836020820111156103dd57600080fd5b803590602001918460208302840111640100000000831117156103ff57600080fd5b509092509050610d53565b60408051602080825283518183015283519192839290830191858101910280838360005b8381101561044657818101518382015260200161042e565b505050509050019250505060405180910390f35b61024a6004803603602081101561047057600080fd5b5035610ddb565b34801561048357600080fd5b506102ba610f96565b34801561049857600080fd5b506102ba600480360360208110156104af57600080fd5b5035610fb6565b3480156104c257600080fd5b506102f6610fca565b3480156104d757600080fd5b5061018e600480360360208110156104ee57600080fd5b5035610fcf565b34801561050157600080fd5b506102ba6004803603602081101561051857600080fd5b5035610fe4565b34801561052b57600080fd5b506102ba611002565b34801561054057600080fd5b506102ba6004803603602081101561055757600080fd5b5035611026565b34801561056a57600080fd5b506102f6611033565b606a6020526000908152604090205460ff1681565b60685460ff166105f957604080517f08c379a000000000000000000000000000000000000000000000000000000000815260206004820152601f60248201527f5265656e7472616e637947756172643a207265656e7472616e742063616c6c00604482015290519081900360640190fd5b606880547fffffffffffffffffffffffffffffffffffffffffffffffffffffffffffffff0016905560695482111561069257604080517f08c379a000000000000000000000000000000000000000000000000000000000815260206004820152601a60248201527f4665652065786365656473207472616e736665722076616c7565000000000000604482015290519081900360640190fd5b6000858152606a602052604090205460ff161561071057604080517f08c379a000000000000000000000000000000000000000000000000000000000815260206004820152601f60248201527f546865206e6f746520686173206265656e20616c7265616479207370656e7400604482015290519081900360640190fd5b61071986610c9b565b61078457604080517f08c379a000000000000000000000000000000000000000000000000000000000815260206004820152601c60248201527f43616e6e6f742066696e6420796f7572206d65726b6c6520726f6f7400000000604482015290519081900360640190fd5b606c546040805160c080820183528982526020820189905273ffffffffffffffffffffffffffffffffffffffff8881168385015287811660608401526080830187905260a0830186905292517f695ef6f9000000000000000000000000000000000000000000000000000000008152929093169263695ef6f9928c928c9290916004810191829160240190849080838360005b8381101561082f578181015183820152602001610817565b505050509050018281038252858582818152602001925080828437600081840152601f19601f820116905080830192505050945050505050602060405180830381600087803b15801561088157600080fd5b505af1158015610895573d6000803e3d6000fd5b505050506040513d60208110156108ab57600080fd5b505161091857604080517f08c379a000000000000000000000000000000000000000000000000000000000815260206004820152601660248201527f496e76616c69642077697468647261772070726f6f6600000000000000000000604482015290519081900360640190fd5b6000858152606a6020526040902080547fffffffffffffffffffffffffffffffffffffffffffffffffffffffffffffff0016600117905561095b84848484611047565b6040805173ffffffffffffffffffffffffffffffffffffffff8681168252602082018890528183018590529151918516917fe9e508bad6d4c3227e881ca19068f099da81b5164dd6d62b2eaf1e8bc6c349319181900360600190a25050606880547fffffffffffffffffffffffffffffffffffffffffffffffffffffffffffffff00166001179055505050505050565b606c5473ffffffffffffffffffffffffffffffffffffffff1681565b60007f30644e72e131a029b85045b68181585d2833e84879b9709143e1f593f00000018310610a9757604080517f08c379a000000000000000000000000000000000000000000000000000000000815260206004820181905260248201527f5f6c6566742073686f756c6420626520696e7369646520746865206669656c64604482015290519081900360640190fd5b7f30644e72e131a029b85045b68181585d2833e84879b9709143e1f593f00000018210610b0f576040517f08c379a000000000000000000000000000000000000000000000000000000000815260040180806020018281038252602181526020018061153e6021913960400191505060405180910390fd5b604080517ff47d33b5000000000000000000000000000000000000000000000000000000008152600481018590526000602482018190528251869391927311735d37F9f4833d6fC6C81634e24D5CE25AfE1D9263f47d33b592604480840193829003018186803b158015610b8257600080fd5b505af4158015610b96573d6000803e3d6000fd5b505050506040513d6040811015610bac57600080fd5b50805160209091015190925090507f30644e72e131a029b85045b68181585d2833e84879b9709143e1f593f000000184830891507311735d37F9f4833d6fC6C81634e24D5CE25AfE1D63f47d33b583836040518363ffffffff1660e01b81526004018083815260200182815260200192505050604080518083038186803b158015610c3657600080fd5b505af4158015610c4a573d6000803e3d6000fd5b505050506040513d6040811015610c6057600080fd5b505195945050505050565b7f30644e72e131a029b85045b68181585d2833e84879b9709143e1f593f000000181565b60005463ffffffff1681565b600081610caa57506000610d27565b60035463ffffffff165b60048163ffffffff1660648110610cc757fe5b0154831415610cda576001915050610d27565b63ffffffff8116610ce9575060645b6003547fffffffffffffffffffffffffffffffffffffffffffffffffffffffffffffffff9091019063ffffffff80831691161415610cb45760009150505b919050565b606b6020526000908152604090205460ff1681565b60695481565b60035463ffffffff1681565b604080518281526020808402820101909152606090828015610d7f578160200160208202803883390190505b50905060005b82811015610dd457610da8848483818110610d9c57fe5b90506020020135610fcf565b15610dcc576001828281518110610dbb57fe5b911515602092830291909101909101525b600101610d85565b5092915050565b60685460ff16610e4c57604080517f08c379a000000000000000000000000000000000000000000000000000000000815260206004820152601f60248201527f5265656e7472616e637947756172643a207265656e7472616e742063616c6c00604482015290519081900360640190fd5b606880547fffffffffffffffffffffffffffffffffffffffffffffffffffffffffffffff001690556000818152606b602052604090205460ff1615610edc576040517f08c379a00000000000000000000000000000000000000000000000000000000081526004018080602001828103825260218152602001806115936021913960400191505060405180910390fd5b6000610ee782611276565b6000838152606b6020526040902080547fffffffffffffffffffffffffffffffffffffffffffffffffffffffffffffff001660011790559050610f2861147a565b6040805163ffffffff83168152426020820152815184927fa945e51eec50ab98c161376f0db4cf2aeba3ec92755fe2fcd388bdbbb80ff196928290030190a25050606880547fffffffffffffffffffffffffffffffffffffffffffffffffffffffffffffff00166001179055565b60035460009060049063ffffffff1660648110610faf57fe5b0154905090565b60048160648110610fc357fe5b0154905081565b606481565b6000908152606a602052604090205460ff1690565b60028181548110610ff157fe5b600091825260209091200154905081565b7f2fe54c60d3acabf3343a35b6eba15db4821b340f76e741e2249685ed4899af6c81565b60018181548110610ff157fe5b600354640100000000900463ffffffff1681565b341561109e576040517f08c379a00000000000000000000000000000000000000000000000000000000081526004018080602001828103825260358152602001806115fc6035913960400191505060405180910390fd5b80156110f5576040517f08c379a000000000000000000000000000000000000000000000000000000000815260040180806020018281038252603481526020018061155f6034913960400191505060405180910390fd5b60695460405160009173ffffffffffffffffffffffffffffffffffffffff87169190859003908381818185875af1925050503d8060008114611153576040519150601f19603f3d011682016040523d82523d6000602084013e611158565b606091505b50509050806111b2576040517f08c379a00000000000000000000000000000000000000000000000000000000081526004018080602001828103825260258152602001806115b46025913960400191505060405180910390fd5b821561126f5760405173ffffffffffffffffffffffffffffffffffffffff8516908490600081818185875af1925050503d806000811461120e576040519150601f19603f3d011682016040523d82523d6000602084013e611213565b606091505b5050809150508061126f576040517f08c379a00000000000000000000000000000000000000000000000000000000081526004018080602001828103825260238152602001806115d96023913960400191505060405180910390fd5b5050505050565b60035460008054909163ffffffff640100000000909104811691811660020a168114156112ee576040517f08c379a000000000000000000000000000000000000000000000000000000000815260040180806020018281038252602f8152602001806114d7602f913960400191505060405180910390fd5b6003805463ffffffff6401000000008083048216600101909116027fffffffffffffffffffffffffffffffffffffffffffffffff00000000ffffffff90911617905582600080805b60005463ffffffff90811690821610156113de576001851661139a5783925060028163ffffffff168154811061136857fe5b906000526020600020015491508360018263ffffffff168154811061138957fe5b6000918252602090912001556113be565b60018163ffffffff16815481106113ad57fe5b906000526020600020015492508391505b6113c88383610a07565b9350600263ffffffff8616049450600101611336565b5060035460649063ffffffff90811660010116600380547fffffffffffffffffffffffffffffffffffffffffffffffffffffffff00000000169290910663ffffffff90811692909217908190558491600491166064811061143b57fe5b01555050600354640100000000900463ffffffff167fffffffffffffffffffffffffffffffffffffffffffffffffffffffffffffffff01949350505050565b60695434146114d4576040517f08c379a00000000000000000000000000000000000000000000000000000000081526004018080602001828103825260388152602001806115066038913960400191505060405180910390fd5b56fe4d65726b6c6520747265652069732066756c6c2e204e6f206d6f7265206c656166732063616e206265206164646564506c656173652073656e6420606d697844656e6f6d696e6174696f6e602045544820616c6f6e672077697468207472616e73616374696f6e5f72696768742073686f756c6420626520696e7369646520746865206669656c64526566756e642076616c756520697320737570706f73656420746f206265207a65726f20666f722045544820696e7374616e636554686520636f6d6d69746d656e7420686173206265656e207375626d69747465647061796d656e7420746f205f726563697069656e7420646964206e6f7420676f20746872757061796d656e7420746f205f72656c6179657220646964206e6f7420676f20746872754d6573736167652076616c756520697320737570706f73656420746f206265207a65726f20666f722045544820696e7374616e6365a265627a7a72315820ca2616b9498dffd41c69894465f848b2af3723dc7fdb9b530c2cd783b51e555864736f6c6343000511003264656e6f6d696e6174696f6e2073686f756c642062652067726561746572207468616e2030405787fa12a823e0f2b7631cc41b3ba8828b3321ca811111fa75cd3aa3bb5ace5f72696768742073686f756c6420626520696e7369646520746865206669656c645f747265654c6576656c732073686f756c642062652067726561746572207468616e207a65726f30644e72e131a029b85045b68181585d2833e84879b9709143e1f593f00000015f747265654c6576656c732073686f756c64206265206c657373207468616e203332b10e2d527612073b26eecdfd717e6a320cf44b4afac2b0732d9fcbe2b7fa0cf6",
  "deployedBytecode": "0x60806040526004361061015f5760003560e01c80639fa12d0b116100c0578063e5285dcc11610074578063ec73295911610059578063ec7329591461051f578063f178e47c14610534578063fc7e9c6f1461055e5761015f565b8063e5285dcc146104cb578063e8295588146104f55761015f565b8063ba70f757116100a5578063ba70f75714610477578063c2b40ae41461048c578063cd87a3b4146104b65761015f565b80639fa12d0b1461038d578063b214faa51461045a5761015f565b80634ecf518b11610117578063839df945116100fc578063839df945146103395780638bca6d161461036357806390eeb02b146103785761015f565b80634ecf518b146102e15780636d9833e31461030f5761015f565b80632b7ac3f3116101485780632b7ac3f31461024c57806338bf282e1461028a578063414a37ba146102cc5761015f565b806317cc915c1461016457806321a0adb6146101a2575b600080fd5b34801561017057600080fd5b5061018e6004803603602081101561018757600080fd5b5035610573565b604080519115158252519081900360200190f35b61024a600480360360e08110156101b857600080fd5b8101906020810181356401000000008111156101d357600080fd5b8201836020820111156101e557600080fd5b8035906020019184600183028401116401000000008311171561020757600080fd5b919350915080359060208101359073ffffffffffffffffffffffffffffffffffffffff604082013581169160608101359091169060808101359060a00135610588565b005b34801561025857600080fd5b506102616109eb565b6040805173ffffffffffffffffffffffffffffffffffffffff9092168252519081900360200190f35b34801561029657600080fd5b506102ba600480360360408110156102ad57600080fd5b5080359060200135610a07565b60408051918252519081900360200190f35b3480156102d857600080fd5b506102ba610c6b565b3480156102ed57600080fd5b506102f6610c8f565b6040805163ffffffff9092168252519081900360200190f35b34801561031b57600080fd5b5061018e6004803603602081101561033257600080fd5b5035610c9b565b34801561034557600080fd5b5061018e6004803603602081101561035c57600080fd5b5035610d2c565b34801561036f57600080fd5b506102ba610d41565b34801561038457600080fd5b506102f6610d47565b34801561039957600080fd5b5061040a600480360360208110156103b057600080fd5b8101906020810181356401000000008111156103cb57600080fd5b8201836020820111156103dd57600080fd5b803590602001918460208302840111640100000000831117156103ff57600080fd5b509092509050610d53565b60408051602080825283518183015283519192839290830191858101910280838360005b8381101561044657818101518382015260200161042e565b505050509050019250505060405180910390f35b61024a6004803603602081101561047057600080fd5b5035610ddb565b34801561048357600080fd5b506102ba610f96565b34801561049857600080fd5b506102ba600480360360208110156104af57600080fd5b5035610fb6565b3480156104c257600080fd5b506102f6610fca565b3480156104d757600080fd5b5061018e600480360360208110156104ee57600080fd5b5035610fcf565b34801561050157600080fd5b506102ba6004803603602081101561051857600080fd5b5035610fe4565b34801561052b57600080fd5b506102ba611002565b34801561054057600080fd5b506102ba6004803603602081101561055757600080fd5b5035611026565b34801561056a57600080fd5b506102f6611033565b606a6020526000908152604090205460ff1681565b60685460ff166105f957604080517f08c379a000000000000000000000000000000000000000000000000000000000815260206004820152601f60248201527f5265656e7472616e637947756172643a207265656e7472616e742063616c6c00604482015290519081900360640190fd5b606880547fffffffffffffffffffffffffffffffffffffffffffffffffffffffffffffff0016905560695482111561069257604080517f08c379a000000000000000000000000000000000000000000000000000000000815260206004820152601a60248201527f4665652065786365656473207472616e736665722076616c7565000000000000604482015290519081900360640190fd5b6000858152606a602052604090205460ff161561071057604080517f08c379a000000000000000000000000000000000000000000000000000000000815260206004820152601f60248201527f546865206e6f746520686173206265656e20616c7265616479207370656e7400604482015290519081900360640190fd5b61071986610c9b565b61078457604080517f08c379a000000000000000000000000000000000000000000000000000000000815260206004820152601c60248201527f43616e6e6f742066696e6420796f7572206d65726b6c6520726f6f7400000000604482015290519081900360640190fd5b606c546040805160c080820183528982526020820189905273ffffffffffffffffffffffffffffffffffffffff8881168385015287811660608401526080830187905260a0830186905292517f695ef6f9000000000000000000000000000000000000000000000000000000008152929093169263695ef6f9928c928c9290916004810191829160240190849080838360005b8381101561082f578181015183820152602001610817565b505050509050018281038252858582818152602001925080828437600081840152601f19601f820116905080830192505050945050505050602060405180830381600087803b15801561088157600080fd5b505af1158015610895573d6000803e3d6000fd5b505050506040513d60208110156108ab57600080fd5b505161091857604080517f08c379a000000000000000000000000000000000000000000000000000000000815260206004820152601660248201527f496e76616c69642077697468647261772070726f6f6600000000000000000000604482015290519081900360640190fd5b6000858152606a6020526040902080547fffffffffffffffffffffffffffffffffffffffffffffffffffffffffffffff0016600117905561095b84848484611047565b6040805173ffffffffffffffffffffffffffffffffffffffff8681168252602082018890528183018590529151918516917fe9e508bad6d4c3227e881ca19068f099da81b5164dd6d62b2eaf1e8bc6c349319181900360600190a25050606880547fffffffffffffffffffffffffffffffffffffffffffffffffffffffffffffff00166001179055505050505050565b606c5473ffffffffffffffffffffffffffffffffffffffff1681565b60007f30644e72e131a029b85045b68181585d2833e84879b9709143e1f593f00000018310610a9757604080517f08c379a000000000000000000000000000000000000000000000000000000000815260206004820181905260248201527f5f6c6566742073686f756c6420626520696e7369646520746865206669656c64604482015290519081900360640190fd5b7f30644e72e131a029b85045b68181585d2833e84879b9709143e1f593f00000018210610b0f576040517f08c379a000000000000000000000000000000000000000000000000000000000815260040180806020018281038252602181526020018061153e6021913960400191505060405180910390fd5b604080517ff47d33b50000000000000000000000000000000000000000000000000000000081526004810185905260006024820181905282518693919273__$9780738a116369df5fe6eb1df74865bc0a$__9263f47d33b592604480840193829003018186803b158015610b8257600080fd5b505af4158015610b96573d6000803e3d6000fd5b505050506040513d6040811015610bac57600080fd5b50805160209091015190925090507f30644e72e131a029b85045b68181585d2833e84879b9709143e1f593f0000001848308915073__$9780738a116369df5fe6eb1df74865bc0a$__63f47d33b583836040518363ffffffff1660e01b81526004018083815260200182815260200192505050604080518083038186803b158015610c3657600080fd5b505af4158015610c4a573d6000803e3d6000fd5b505050506040513d6040811015610c6057600080fd5b505195945050505050565b7f30644e72e131a029b85045b68181585d2833e84879b9709143e1f593f000000181565b60005463ffffffff1681565b600081610caa57506000610d27565b60035463ffffffff165b60048163ffffffff1660648110610cc757fe5b0154831415610cda576001915050610d27565b63ffffffff8116610ce9575060645b6003547fffffffffffffffffffffffffffffffffffffffffffffffffffffffffffffffff9091019063ffffffff80831691161415610cb45760009150505b919050565b606b6020526000908152604090205460ff1681565b60695481565b60035463ffffffff1681565b604080518281526020808402820101909152606090828015610d7f578160200160208202803883390190505b50905060005b82811015610dd457610da8848483818110610d9c57fe5b90506020020135610fcf565b15610dcc576001828281518110610dbb57fe5b911515602092830291909101909101525b600101610d85565b5092915050565b60685460ff16610e4c57604080517f08c379a000000000000000000000000000000000000000000000000000000000815260206004820152601f60248201527f5265656e7472616e637947756172643a207265656e7472616e742063616c6c00604482015290519081900360640190fd5b606880547fffffffffffffffffffffffffffffffffffffffffffffffffffffffffffffff001690556000818152606b602052604090205460ff1615610edc576040517f08c379a00000000000000000000000000000000000000000000000000000000081526004018080602001828103825260218152602001806115936021913960400191505060405180910390fd5b6000610ee782611276565b6000838152606b6020526040902080547fffffffffffffffffffffffffffffffffffffffffffffffffffffffffffffff001660011790559050610f2861147a565b6040805163ffffffff83168152426020820152815184927fa945e51eec50ab98c161376f0db4cf2aeba3ec92755fe2fcd388bdbbb80ff196928290030190a25050606880547fffffffffffffffffffffffffffffffffffffffffffffffffffffffffffffff00166001179055565b60035460009060049063ffffffff1660648110610faf57fe5b0154905090565b60048160648110610fc357fe5b0154905081565b606481565b6000908152606a602052604090205460ff1690565b60028181548110610ff157fe5b600091825260209091200154905081565b7f2fe54c60d3acabf3343a35b6eba15db4821b340f76e741e2249685ed4899af6c81565b60018181548110610ff157fe5b600354640100000000900463ffffffff1681565b341561109e576040517f08c379a00000000000000000000000000000000000000000000000000000000081526004018080602001828103825260358152602001806115fc6035913960400191505060405180910390fd5b80156110f5576040517f08c379a000000000000000000000000000000000000000000000000000000000815260040180806020018281038252603481526020018061155f6034913960400191505060405180910390fd5b60695460405160009173ffffffffffffffffffffffffffffffffffffffff87169190859003908381818185875af1925050503d8060008114611153576040519150601f19603f3d011682016040523d82523d6000602084013e611158565b606091505b50509050806111b2576040517f08c379a00000000000000000000000000000000000000000000000000000000081526004018080602001828103825260258152602001806115b46025913960400191505060405180910390fd5b821561126f5760405173ffffffffffffffffffffffffffffffffffffffff8516908490600081818185875af1925050503d806000811461120e576040519150601f19603f3d011682016040523d82523d6000602084013e611213565b606091505b5050809150508061126f576040517f08c379a00000000000000000000000000000000000000000000000000000000081526004018080602001828103825260238152602001806115d96023913960400191505060405180910390fd5b5050505050565b60035460008054909163ffffffff640100000000909104811691811660020a168114156112ee576040517f08c379a000000000000000000000000000000000000000000000000000000000815260040180806020018281038252602f8152602001806114d7602f913960400191505060405180910390fd5b6003805463ffffffff6401000000008083048216600101909116027fffffffffffffffffffffffffffffffffffffffffffffffff00000000ffffffff90911617905582600080805b60005463ffffffff90811690821610156113de576001851661139a5783925060028163ffffffff168154811061136857fe5b906000526020600020015491508360018263ffffffff168154811061138957fe5b6000918252602090912001556113be565b60018163ffffffff16815481106113ad57fe5b906000526020600020015492508391505b6113c88383610a07565b9350600263ffffffff8616049450600101611336565b5060035460649063ffffffff90811660010116600380547fffffffffffffffffffffffffffffffffffffffffffffffffffffffff00000000169290910663ffffffff90811692909217908190558491600491166064811061143b57fe5b01555050600354640100000000900463ffffffff167fffffffffffffffffffffffffffffffffffffffffffffffffffffffffffffffff01949350505050565b60695434146114d4576040517f08c379a00000000000000000000000000000000000000000000000000000000081526004018080602001828103825260388152602001806115066038913960400191505060405180910390fd5b56fe4d65726b6c6520747265652069732066756c6c2e204e6f206d6f7265206c656166732063616e206265206164646564506c656173652073656e6420606d697844656e6f6d696e6174696f6e602045544820616c6f6e672077697468207472616e73616374696f6e5f72696768742073686f756c6420626520696e7369646520746865206669656c64526566756e642076616c756520697320737570706f73656420746f206265207a65726f20666f722045544820696e7374616e636554686520636f6d6d69746d656e7420686173206265656e207375626d69747465647061796d656e7420746f205f726563697069656e7420646964206e6f7420676f20746872757061796d656e7420746f205f72656c6179657220646964206e6f7420676f20746872754d6573736167652076616c756520697320737570706f73656420746f206265207a65726f20666f722045544820696e7374616e6365a265627a7a72315820ca2616b9498dffd41c69894465f848b2af3723dc7fdb9b530c2cd783b51e555864736f6c63430005110032",
  "libraries": {
    "Hasher": "0x11735d37F9f4833d6fC6C81634e24D5CE25AfE1D"
  },
  "devdoc": {
    "methods": {
      "deposit(bytes32)": {
        "details": "Deposit funds into the contract. The caller must send (for ETH) or approve (for ERC20) value equal to or `denomination` of this instance.",
        "params": {
          "_commitment": "the note commitment, which is PedersenHash(nullifier + secret)"
        }
      },
      "getLastRoot()": {
        "details": "Returns the last root"
      },
      "hashLeftRight(bytes32,bytes32)": {
        "details": "Hash 2 tree leaves, returns MiMC(_left, _right)"
      },
      "isKnownRoot(bytes32)": {
        "details": "Whether the root is present in the root history"
      },
      "isSpent(bytes32)": {
        "details": "whether a note is already spent "
      },
      "isSpentArray(bytes32[])": {
        "details": "whether an array of notes is already spent "
      },
      "withdraw(bytes,bytes32,bytes32,address,address,uint256,uint256)": {
        "details": "Withdraw a deposit from the contract. `proof` is a zkSNARK proof data, and input is an array of circuit public inputs `input` array consists of: - merkle root of all deposits in the contract - hash of unique deposit nullifier to prevent double spends - the recipient of funds - optional fee that goes to the transaction sender (usually a relay)"
      }
    }
  },
  "userdoc": {
    "methods": {}
  },
  "storageLayout": {
    "storage": [
      {
        "astId": 374,
        "contract": "contracts/ETHSherpa.sol:ETHSherpa",
        "label": "levels",
        "offset": 0,
        "slot": "0",
        "type": "t_uint32"
      },
      {
        "astId": 377,
        "contract": "contracts/ETHSherpa.sol:ETHSherpa",
        "label": "filledSubtrees",
        "offset": 0,
        "slot": "1",
        "type": "t_array(t_bytes32)dyn_storage"
      },
      {
        "astId": 380,
        "contract": "contracts/ETHSherpa.sol:ETHSherpa",
        "label": "zeros",
        "offset": 0,
        "slot": "2",
        "type": "t_array(t_bytes32)dyn_storage"
      },
      {
        "astId": 383,
        "contract": "contracts/ETHSherpa.sol:ETHSherpa",
        "label": "currentRootIndex",
        "offset": 0,
        "slot": "3",
        "type": "t_uint32"
      },
      {
        "astId": 386,
        "contract": "contracts/ETHSherpa.sol:ETHSherpa",
        "label": "nextIndex",
        "offset": 4,
        "slot": "3",
        "type": "t_uint32"
      },
      {
        "astId": 393,
        "contract": "contracts/ETHSherpa.sol:ETHSherpa",
        "label": "roots",
        "offset": 0,
        "slot": "4",
        "type": "t_array(t_bytes32)100_storage"
      },
      {
        "astId": 3,
        "contract": "contracts/ETHSherpa.sol:ETHSherpa",
        "label": "_notEntered",
        "offset": 0,
        "slot": "104",
        "type": "t_bool"
      },
      {
        "astId": 765,
        "contract": "contracts/ETHSherpa.sol:ETHSherpa",
        "label": "denomination",
        "offset": 0,
        "slot": "105",
        "type": "t_uint256"
      },
      {
        "astId": 769,
        "contract": "contracts/ETHSherpa.sol:ETHSherpa",
        "label": "nullifierHashes",
        "offset": 0,
        "slot": "106",
        "type": "t_mapping(t_bytes32,t_bool)"
      },
      {
        "astId": 773,
        "contract": "contracts/ETHSherpa.sol:ETHSherpa",
        "label": "commitments",
        "offset": 0,
        "slot": "107",
        "type": "t_mapping(t_bytes32,t_bool)"
      },
      {
        "astId": 775,
        "contract": "contracts/ETHSherpa.sol:ETHSherpa",
        "label": "verifier",
        "offset": 0,
        "slot": "108",
        "type": "t_contract(IVerifier)759"
      }
    ],
    "types": {
      "t_array(t_bytes32)100_storage": {
        "base": "t_bytes32",
        "encoding": "inplace",
        "label": "bytes32[100]",
        "numberOfBytes": "3200"
      },
      "t_array(t_bytes32)dyn_storage": {
        "base": "t_bytes32",
        "encoding": "dynamic_array",
        "label": "bytes32[]",
        "numberOfBytes": "32"
      },
      "t_bool": {
        "encoding": "inplace",
        "label": "bool",
        "numberOfBytes": "1"
      },
      "t_bytes32": {
        "encoding": "inplace",
        "label": "bytes32",
        "numberOfBytes": "32"
      },
      "t_contract(IVerifier)759": {
        "encoding": "inplace",
        "label": "contract IVerifier",
        "numberOfBytes": "20"
      },
      "t_mapping(t_bytes32,t_bool)": {
        "encoding": "mapping",
        "key": "t_bytes32",
        "label": "mapping(bytes32 => bool)",
        "numberOfBytes": "32",
        "value": "t_bool"
      },
      "t_uint256": {
        "encoding": "inplace",
        "label": "uint256",
        "numberOfBytes": "32"
      },
      "t_uint32": {
        "encoding": "inplace",
        "label": "uint32",
        "numberOfBytes": "4"
      }
    }
  }
}